{
    "_format": "hh-sol-artifact-1",
    "contractName": "Oui",
    "sourceName": "contracts/Oui.sol",
    "abi": [
        {
            "inputs": [],
            "stateMutability": "nonpayable",
            "type": "constructor"
        },
        {
            "anonymous": false,
            "inputs": [
                {
                    "indexed": true,
                    "internalType": "address",
                    "name": "sender",
                    "type": "address"
                },
                {
                    "indexed": false,
                    "internalType": "uint256",
                    "name": "amount",
                    "type": "uint256"
                },
                {
                    "indexed": false,
                    "internalType": "uint256",
                    "name": "balance",
                    "type": "uint256"
                }
            ],
            "name": "Deposit",
            "type": "event"
        },
        {
            "anonymous": false,
            "inputs": [
                {
                    "indexed": true,
                    "internalType": "address",
                    "name": "sender",
                    "type": "address"
                },
                {
                    "indexed": false,
                    "internalType": "uint256",
                    "name": "amount",
                    "type": "uint256"
                },
                {
                    "indexed": false,
                    "internalType": "uint256",
                    "name": "balance",
                    "type": "uint256"
                }
            ],
            "name": "Withdrawal",
            "type": "event"
        },
        {
            "inputs": [
                {
                    "internalType": "address",
                    "name": "",
                    "type": "address"
                }
            ],
            "name": "deposits",
            "outputs": [
                {
                    "internalType": "uint256",
                    "name": "",
                    "type": "uint256"
                }
            ],
            "stateMutability": "view",
            "type": "function"
        },
        {
            "inputs": [
                {
                    "internalType": "address",
                    "name": "_account",
                    "type": "address"
                }
            ],
            "name": "getAccountBalance",
            "outputs": [
                {
                    "internalType": "uint256",
                    "name": "",
                    "type": "uint256"
                }
            ],
            "stateMutability": "view",
            "type": "function"
        },
        {
            "inputs": [],
            "name": "getContractBalance",
            "outputs": [
                {
                    "internalType": "uint256",
                    "name": "",
                    "type": "uint256"
                }
            ],
            "stateMutability": "view",
            "type": "function"
        },
        {
            "inputs": [],
            "name": "owner",
            "outputs": [
                {
                    "internalType": "address",
                    "name": "",
                    "type": "address"
                }
            ],
            "stateMutability": "view",
            "type": "function"
        },
        {
            "inputs": [
                {
                    "internalType": "uint256",
                    "name": "_amount",
                    "type": "uint256"
                }
            ],
            "name": "withdrawal",
            "outputs": [],
            "stateMutability": "nonpayable",
            "type": "function"
        },
        {
            "stateMutability": "payable",
            "type": "receive"
        }
    ],
    "bytecode": "0x608060405234801561001057600080fd5b50336000806101000a81548173ffffffffffffffffffffffffffffffffffffffff021916908373ffffffffffffffffffffffffffffffffffffffff16021790555061081d806100606000396000f3fe60806040526004361061004e5760003560e01c80636f9fb98a1461013f578063835fc6ca1461016a5780638da5cb5b1461019357806393423e9c146101be578063fc7e286d146101fb5761013a565b3661013a5734600160003373ffffffffffffffffffffffffffffffffffffffff1673ffffffffffffffffffffffffffffffffffffffff16815260200190815260200160002060008282546100a291906106c4565b925050819055503373ffffffffffffffffffffffffffffffffffffffff167f90890809c654f11d6e72a28fa60149770a0d11ec6c92319d6ceb2bb0a4ea1a1534600160003373ffffffffffffffffffffffffffffffffffffffff1673ffffffffffffffffffffffffffffffffffffffff1681526020019081526020016000205460405161013092919061068a565b60405180910390a2005b600080fd5b34801561014b57600080fd5b50610154610238565b604051610161919061066f565b60405180910390f35b34801561017657600080fd5b50610191600480360381019061018c919061054d565b610240565b005b34801561019f57600080fd5b506101a8610475565b6040516101b59190610614565b60405180910390f35b3480156101ca57600080fd5b506101e560048036038101906101e09190610524565b610499565b6040516101f2919061066f565b60405180910390f35b34801561020757600080fd5b50610222600480360381019061021d9190610524565b6104e2565b60405161022f919061066f565b60405180910390f35b600047905090565b6000600160003373ffffffffffffffffffffffffffffffffffffffff1673ffffffffffffffffffffffffffffffffffffffff16815260200190815260200160002054116102c2576040517f08c379a00000000000000000000000000000000000000000000000000000000081526004016102b99061064f565b60405180910390fd5b80600160003373ffffffffffffffffffffffffffffffffffffffff1673ffffffffffffffffffffffffffffffffffffffff16815260200190815260200160002054811115610345576040517f08c379a000000000000000000000000000000000000000000000000000000000815260040161033c9061062f565b60405180910390fd5b81600160003373ffffffffffffffffffffffffffffffffffffffff1673ffffffffffffffffffffffffffffffffffffffff1681526020019081526020016000206000828254610394919061071a565b925050819055503373ffffffffffffffffffffffffffffffffffffffff166108fc839081150290604051600060405180830381858888f193505050501580156103e1573d6000803e3d6000fd5b503373ffffffffffffffffffffffffffffffffffffffff167fdf273cb619d95419a9cd0ec88123a0538c85064229baa6363788f743fff90deb83600160003373ffffffffffffffffffffffffffffffffffffffff1673ffffffffffffffffffffffffffffffffffffffff1681526020019081526020016000205460405161046992919061068a565b60405180910390a25050565b60008054906101000a900473ffffffffffffffffffffffffffffffffffffffff1681565b6000600160008373ffffffffffffffffffffffffffffffffffffffff1673ffffffffffffffffffffffffffffffffffffffff168152602001908152602001600020549050919050565b60016020528060005260406000206000915090505481565b600081359050610509816107b9565b92915050565b60008135905061051e816107d0565b92915050565b60006020828403121561053657600080fd5b6000610544848285016104fa565b91505092915050565b60006020828403121561055f57600080fd5b600061056d8482850161050f565b91505092915050565b61057f8161074e565b82525050565b60006105926014836106b3565b91507f696e73756666696369656e742062616c616e63650000000000000000000000006000830152602082019050919050565b60006105d2600c836106b3565b91507f62616c616e6365206973203000000000000000000000000000000000000000006000830152602082019050919050565b61060e81610780565b82525050565b60006020820190506106296000830184610576565b92915050565b6000602082019050818103600083015261064881610585565b9050919050565b60006020820190508181036000830152610668816105c5565b9050919050565b60006020820190506106846000830184610605565b92915050565b600060408201905061069f6000830185610605565b6106ac6020830184610605565b9392505050565b600082825260208201905092915050565b60006106cf82610780565b91506106da83610780565b9250827fffffffffffffffffffffffffffffffffffffffffffffffffffffffffffffffff0382111561070f5761070e61078a565b5b828201905092915050565b600061072582610780565b915061073083610780565b9250828210156107435761074261078a565b5b828203905092915050565b600061075982610760565b9050919050565b600073ffffffffffffffffffffffffffffffffffffffff82169050919050565b6000819050919050565b7f4e487b7100000000000000000000000000000000000000000000000000000000600052601160045260246000fd5b6107c28161074e565b81146107cd57600080fd5b50565b6107d981610780565b81146107e457600080fd5b5056fea26469706673582212200999e5636e723a699fea974d66d62e9857b7e42eb7420038758c705dad892cea64736f6c63430008000033",
    "linkReferences": {},
    "deployedLinkReferences": {}
}